:100000000C948D010C94B5010C94B5010C94B501C0
:100010000C94B5010C94B5010C94B5010C94B50188
:100020000C94B5010C94B5010C94B5010C94B50178
:100030000C94B5010C94B5010C94B5010C94B50168
:100040000C9448140C94B5010C944C120C94261288
:100050000C94B5010C94B5010C94B5010C94B50148
:100060000C94B5010C94B5017374645F6D73677380
:100070002F486561646572003231373664656361AB
:10008000656362636537386162633362393665661A
:1000900030343966616265640073656E736F725FD8
:1000A0006D7367732F52616E67650063303035631F
:1000B0003334323733646334323663363761303247
:1000C00030613837626332343134380067656F6DC0
:1000D000657472795F6D7367732F566563746F72A1
:1000E0003300346138343262363566343133303877
:1000F0003464633262313066623438346561376645
:1001000031370067656F6D657472795F6D73677302
:100110002F5175617465726E696F6E006137373982
:100120003837396661646630313630373334663992
:100130003036623863313963373030340067656F89
:100140006D657472795F6D7367732F5472616E732E
:10015000666F726D0061633965666634346162662C
:1001600037313432313431313262303564353461D3
:1001700033636639620067656F6D657472795F6DB0
:100180007367732F5472616E73666F726D5374610F
:100190006D7065640062353736346133336266658D
:1001A0006233353838666562633236383238353214
:1001B00035373962300074662F74664D657373612C
:1001C00067650039343831306564646135383361CE
:1001D00035303464666461333832396537306437BA
:1001E0006565630000000000230026002900737489
:1001F000645F6D7367732F54696D65006364373195
:100200003636633734633535326333313166626392
:1002100063326665356137626332383900726F73F5
:1002200073657269616C5F6D7367732F546F70696A
:1002300063496E666F0030616435316638386663D5
:100240003434383932663863313036383430373701
:1002500036343630303500726F7373657269616C95
:100260005F6D7367732F4C6F670031316162643764
:1002700033316332353933333236316364363138B2
:100280003362643132643632393500726F737365AC
:100290007269616C5F6D7367732F526571756573F9
:1002A00074506172616D003966306539386264611D
:1002B00036353938313938366464663533616661CC
:1002C0003761343065343900000000002400270015
:1002D0002A0000000000250028002B00040404046C
:1002E00004040404020202020202030303030303E0
:1002F00001020408102040800102040810200102BD
:100300000408102000000008000201000003040798
:1003100000000000000000008B1711241FBECFEF6B
:10032000D8E0DEBFCDBF12E0A0E0B1E0E0EBFAE341
:1003300002C005900D92A237B107D9F726E0A2E7D7
:10034000B2E001C01D92AB3AB207E1F711E0CDE88F
:10035000D1E004C02197FE010E947F19CC38D1075B
:10036000C9F70E9401150C94561D0C9400008E5480
:100370009D4FFC018081089583EC91E0089586EB08
:1003800091E008958F929F92AF92BF92CF92DF92A9
:10039000EF92FF920F931F93CF93DF93EC018B01AA
:1003A0008A81DB018C938B8111968C9311978C81C0
:1003B00012968C9312978D8113968C93C12CD12C0D
:1003C000812C912C540184E0E82EF12C8A819B81B0
:1003D000AC81BD8188169906AA06BB06C8F48CAD0F
:1003E0009DAD8C0D9D1DB8016E0D7F1DDC01ED9145
:1003F000FC910190F081E02D0995E80EF91EBFEF08
:100400008B1A9B0AAB0ABB0AE6E3CE0ED11CDECFE9
:10041000C701DF91CF911F910F91FF90EF90DF9077
:10042000CF90BF90AF909F908F90089585E991E015
:10043000089586E791E0089585E591E008958DE3BC
:1004400091E008958CE191E0089583E091E00895B2
:1004500082EE90E008958CEC90E008958BEA90E0B5
:10046000089589E990E0089588E790E0089588E686
:1004700090E008950F931F93CF93DF93EC018B01CE
:1004800002960E94F009F801E80FF91F20812A8BDB
:100490002281438150E060E070E0BA015527442793
:1004A000522B2181422B2481722B4B8B5C8B6D8BC9
:1004B0007E8B2681478150E060E070E0BA015527CD
:1004C0004427522B2581422B2085722B4F8B588F2E
:1004D000698F7A8F2285438550E060E070E0BA0131
:1004E00055274427522B2185422B2485722B4B8F75
:1004F0005C8F6D8F7E8F2685478550E060E070E0D1
:10050000BA0155274427522B2585422B2089722B6F
:100510004F8F58A369A37AA34196DF91CF911F9182
:100520000F9108950F931F93CF93DF93EC018B01ED
:1005300002960E94ED0B2A89F801E80FF91F20832B
:100540005B894C893D892E8951834283338324837F
:100550005F89488D398D2A8D55834683378320875F
:100560005B8D4C8D3D8D2E8D51874287338724873F
:100570005F8D48A139A12AA1558746873787208BEF
:100580004196DF91CF911F910F910895EF92FF92C5
:100590000F931F93CF93DF938C017B01BC016E5FA0
:1005A0007F4FC7010E94F00FEC01B8016A5F7F4FD7
:1005B000C7018C0F9D1F0E94F00FC80FD91FB801F3
:1005C000665F7F4FC7018C0F9D1F0E94F00FC80F01
:1005D000D91FB801625F7F4FC7018C0F9D1F0E941A
:1005E000F00F8C0F9D1FDF91CF911F910F91FF9006
:1005F000EF900895EF92FF920F931F93CF93DF93A5
:100600008C017B01BC016E5F7F4FC7010E94F00F20
:10061000EC01B8016A5F7F4FC7018C0F9D1F0E94DC
:10062000F00FC80FD91FB801665F7F4FC7018C0F4D
:100630009D1F0E94F00F8C0F9D1FDF91CF911F9186
:100640000F91FF90EF900895EF92FF920F931F93F9
:10065000CF93DF937C01EB0102960E94FA028C019A
:10066000BE01680F791FC70140960E94C602800F25
:10067000911FDF91CF911F910F91FF90EF900895FF
:10068000EF92FF920F931F93CF93DF937C018B0127
:10069000FC014281538164817581C8010E949810D8
:1006A000EC01F7014681578160857185C8018C0F87
:1006B0009D1F0E949810C80FD91FF70142855385CE
:1006C00064857585C8018C0F9D1F0E949810C80F06
:1006D000D91FF7014685578560897189C8018C0F3C
:1006E0009D1F0E9498108C0F9D1FDF91CF911F912D
:1006F0000F91FF90EF900895EF92FF920F931F9349
:10070000CF93DF937C018B01FC0142815381648193
:100710007581C8010E949810EC01F701468157814C
:1007200060857185C8018C0F9D1F0E949810C80FAD
:10073000D91FF7014285538564857585C8018C0FE3
:100740009D1F0E9498108C0F9D1FDF91CF911F91CC
:100750000F91FF90EF900895EF92FF920F931F93E8
:10076000CF93DF937C01EB0102960E947C038C0106
:10077000BE01680F791FC70140960E944003800F99
:10078000911FDF91CF911F910F91FF90EF900895EE
:100790002F923F924F925F926F927F928F929F9291
:1007A000AF92BF92CF92DF92EF92FF920F931F937F
:1007B000CF93DF93CDB7DEB7E0970FB6F894DEBFE7
:1007C0000FBECDBF8C010E94AE132B013C019801DE
:1007D00029543D4F3E8F2D8FF90180819181A28157
:1007E000B381A3019201281B390B4A0B5B0BDA0181
:1007F000C901893F9A42A105B10510F035971082D1
:10080000480148E5841A4DEF940AD4018D919C91DA
:10081000892B79F0F801E554FD4F80819181A28107
:10082000B38184159505A605B70518F4F401118266
:100830001082980120553D4F3A8F298FA8014455C9
:100840005D4F5C8F4B8F180154E1250E311CC801A0
:100850008E549D4F9AA389A3D801A054BD4FB8A729
:10086000AFA3F801E154FD4FFAA7E9A75801F6E557
:10087000AF1AFDEFBF0A2250310938A32F8FA8010C
:1008800045545D4F5CA74BA7D301C2014496A11DFF
:10089000B11D8DA79EA7AFA7B8ABD80112968D91B9
:1008A0009C911397DC01ED91FC910284F385E02D7E
:1008B00009959C0197FDEDC2E98DFA8D80819181AA
:1008C000820F931F91838083D4014D915C914730B7
:1008D0005105C9F4EF8DF8A180819181AC014F5F82
:1008E0005F4F51834083F801E80FF91F248BD50136
:1008F0008D919C91119701978D939C93892B69F60B
:1009000088E090E033C04115510541F52F3F310596
:1009100089F481E090E0D4018D939C932DA53EA5B0
:100920004FA558A9ABA5BCA52D933D934D935C93C2
:100930001397B3CF0E94AE13DC01CB018419950944
:10094000A609B7090697A105B10508F4A6CFF801D5
:10095000EE54FD4F10828EEF9FEFC3C24130510520
:10096000A9F42E3F310531F482E090E0F401918347
:10097000808393CFD4011D921C92E9A1FAA18081BA
:1009800081118BCFC8010E94101487CF42305105CE
:1009900089F4D5012D933C93EF8DF8A1118210823B
:1009A00083E090E0D4018D939C93E98DFA8D31839F
:1009B000208373CF4330510569F4322F2227D501AC
:1009C0008D919C911197280F391F2D933C9384E0B2
:1009D00090E0CCCF4430510589F460E071E00E9492
:1009E0002A198F3F910531F485E090E0D4018D9371
:1009F0009C9353CFF401118210824FCF45305105A3
:100A000071F4AB8DBC8D2D933C9386E090E0F401A6
:100A100091838083A98DBA8D2D933C933ECF463030
:100A2000510599F4322F2227EB8DFC8D8081918125
:100A3000280F391F3183208387E090E0D4018D9304
:100A40009C93F5018081918159CF4830510509F07F
:100A500024CFD4011D921C9260E071E00E942A19FB
:100A60008F3F910509F019CFEB8DFC8D808191812D
:100A7000009709F040C1C8010E94101487E491E07A
:100A80009A8389831C821B8281E692E09E838D83F8
:100A900098878F839A8789871B861C861D861E866A
:100AA0006801FCEBCF1AFDEFDF0A78012AE8E21AB1
:100AB0002DEFF20A2FE2222E21E0322ED601AD9048
:100AC000BC90A114B10409F475C01A8A198A388A35
:100AD0002F861E8A1D8A86E990E00E942A1B9C8B25
:100AE0008B8BFC011082EB56FF4F1082D5011596BF
:100AF0008D919C9116979C838B836D917C9111971E
:100B000012964C91CE010F960E94DC0F9E838D832E
:100B1000D601ED91FC9183819481DC01ED91FC91F2
:100B20000480F581E02D0995BC01CE010F960E944D
:100B3000980F98878F83D601ED91FC9183819481E2
:100B4000DC01ED91FC910680F781E02D0995BC0157
:100B5000CE010F960E94980F9A87898728E131E08D
:100B600040E050E02B873C874D875E87D601ED91B2
:100B7000FC9161857285D801ED91FC910190F08125
:100B8000E02DAE014F5F5F4FC801099589899A89B1
:100B90008130910519F44DEC51E004C0029731F415
:100BA00041EE51E063E0C8010E947E12CE010F9633
:100BB0000E94890FB2E0CB0ED11CEC14FD0409F0A9
:100BC0007DCF9FE2A92E91E0B92EF701C080D180A0
:100BD000C114D10409F474C01A8A198AB88AAF867C
:100BE0001E8A1D8A86E990E00E942A1B9C8B8B8BB3
:100BF000DC011C92FC01EB56FF4F1082F601828152
:100C000093819C838B83648175814681CE010F968D
:100C10000E94DC0F9E838D83D7018D919C91DC0116
:100C2000ED91FC910480F581E02D0995BC01CE0188
:100C30000F960E94980F98878F83F701808191818A
:100C4000DC01ED91FC910680F781E02D0995BC0156
:100C5000CE010F960E94980F9A87898728E131E08C
:100C600040E050E02B873C874D875E87D801ED91AF
:100C7000FC91C080D180F70180819181DC01ED91F0
:100C8000FC910280F381E02D0995AE014F5F5F4F2B
:100C9000BC01C801F601099589899A8981309105BD
:100CA00019F44DEC51E004C0029731F441EE51E0EB
:100CB00063E0C8010E947E12CE010F960E94890F48
:100CC000F2E0EF0EF11C8E149F0409F07ECFF801C4
:100CD000EE54FD4F81E080833196408251826282E2
:100CE0007382AD8DBE8D4D925D926D927C92139705
:100CF0008FEF9FEFF6C08A30910509F0A1C081E621
:100D000091E09A8389831B821C821D821E821F822E
:100D1000188619861A860E94AE13F801C084D18401
:100D2000E284F3849B01AC012C193D094E095F0953
:100D300069017A01B101CE0101960E948609C701BD
:100D4000B60128EE33E040E050E00E943E19CB802F
:100D5000DC80ED80FE80C20ED31EE41EF51ECB8229
:100D6000DC82ED82FE829B01AC0160E472E48FE0E4
:100D700090E00E941A19CF80D884E984FA84DC01BB
:100D8000CB018C0D9D1DAE1DBF1D8F839887A9873C
:100D9000BA870E94AE13CF80D884E984FA8436E300
:100DA000D31A35E6E30A34ECF30A28EE33E040E0E8
:100DB00050E00E943E192BA33CA34DA35EA39B01D0
:100DC000AC0160E472E48FE090E00E941A19A70180
:100DD0009601261B370B480B590BCA01B901CB8072
:100DE000DC80ED80FE8031E0C31AD108E108F10813
:100DF0002BA13CA14DA15EA1C21AD30AE40AF50AB7
:100E000020E03AEC4AE95BE30E943E19C20ED31E91
:100E1000E41EF51ED8011C96CD92DD92ED92FC9257
:100E20001F97F801608B718B828B938B0E94AE139E
:100E3000AD8DBE8D6D937D938D939C9313972DCD2A
:100E40008630910551F4B1018FA198A50E94CE0D75
:100E500081E0E9A5FAA5808320CD8B30910521F4AE
:100E6000A9A1BAA11C9219CDFC01E952FF4FEE0FC6
:100E7000FF1FE00FF11F80819181009709F40DCDD4
:100E8000DC01ED91FC910190F081E02DB10109951B
:100E900004CDF801EE54FD4F8081882301F17801E3
:100EA000BDE4EB1ABDEFFB0AF70180819181A281BD
:100EB000B381A3019201281B390B4A0B5B0BDA01AA
:100EC000C901853C9940A105B10548F0C8010E94BF
:100ED0001014D7014D925D926D927C92139780E031
:100EE00090E0E0960FB6F894DEBF0FBECDBFDF9165
:100EF000CF911F910F91FF90EF90DF90CF90BF9017
:100F0000AF909F908F907F906F905F904F903F90A9
:100F10002F900895CF92DF92EF92FF92FC01108202
:100F2000118212821382DB0120E030E04D9150E00B
:100F3000022E02C0440F551F0A94E2F7052E000C42
:100F4000660B770BC080D180E280F3804C295D294D
:100F50006E297F294083518362837383285F3F4FCB
:100F60002032310519F7FF90EF90DF90CF90089570
:100F70004F925F926F927F928F929F92AF92BF92A9
:100F8000CF92DF92EF92FF920F931F93CF93DF9355
:100F900000D000D0CDB7DEB77C016B0102960E9475
:100FA000F0098C01B601680F791FCE0101960E94ED
:100FB0008A07C801049689809A80AB80BC80AC0106
:100FC000092E000C660B770B480D591D6A1D7B1D01
:100FD0000D5F1F4FF601E00FF11F9C012901612CED
:100FE000712C441655066606770628F4A181A19354
:100FF0002F5F3F4FF3CF8C01080D191DB601600F15
:10100000711FFB013197108201978C0D9D1DF70117
:10101000938B828BC70144960E942403800F911FFB
:101020000F900F900F900F90DF91CF911F910F9124
:10103000FF90EF90DF90CF90BF90AF909F908F90F8
:101040007F906F905F904F9008954F925F926F9254
:101050007F92AF92BF92CF92DF92EF92FF920F9367
:101060001F93CF93DF93EC015B01FB01C080D18024
:10107000E280F3808A819B81AC81BD818C159D05C6
:10108000AE05BF0560F486E38C9DB0018D9D700DAB
:1010900011248CAD9DAD0E944B1C9DAF8CAFCA82BC
:1010A000DB82EC82FD82E12CF12C412C512C3201AF
:1010B00004E010E06E01F6E0CF0ED11C8A819B8126
:1010C000AC81BD81481659066A067B06D8F4B50185
:1010D000600F711FC6010E94B807080F191FACAD41
:1010E000BDADAE0DBF1D86E3F60101900D928A9550
:1010F000E1F78FEF481A580A680A780AE6E3EE0E1D
:10110000F11CDCCFC801DF91CF911F910F91FF90AF
:10111000EF90DF90CF90BF90AF907F906F905F90F7
:101120004F900895CF92DF92EF92FF9220E030E04F
:101130006A017B01022E04C0F694E794D794C79409
:101140000A94D2F7FC01C192CF01285F3F4F2032B1
:10115000310571F7FF90EF90DF90CF900895CF9217
:10116000DF92EF92FF920F931F93CF93DF937C0157
:101170008B0102960E94ED0BEC01F701A289B38965
:10118000FD0101900020E9F731976F01CA1ADB0ACF
:10119000A60160E070E0C8018C0F9D1F0E949208BC
:1011A0002496F70162897389A601C8018C0F9D1FDF
:1011B0000E94161DCC0DDD1DB8016C0F7D1FC701EF
:1011C00044960E94AC038C0F9D1FDF91CF911F911D
:1011D0000F91FF90EF90DF90CF900895FF920F93C3
:1011E0001F93CF93DF9300D000D0CDB7DEB7F82E9A
:1011F0008B0161E00E94721360E0802F0E947213E5
:1012000060E08F2D0E94251383E090E00197F1F7B5
:1012100061E08F2D0E94251383E290E00197F1F7A2
:1012200060E08F2D0E9425131127F801E051FD4F3A
:101230006491F801E452FD4FE491F0E0EE0FFF1FDE
:10124000EC51FE4F8591949100E412E42FE030E0E0
:10125000462F0E949214611571058105910539F0A0
:10126000DC01CB010196A11DB11DBF7003C080E060
:1012700090E0DC0189839A83AB83BC8369817A81A6
:101280008B819C810E940B1A26E933E44BE05DE3DD
:101290000E94BD1A20E030E040E05FE30E94BD1AEA
:1012A00020E030E048EC52E40E9499190F900F9032
:1012B0000F900F90DF91CF911F910F91FF900895A4
:1012C000CB010895442341F021E030E0FC01338359
:1012D00022838FE491E00895CB01089587EA92E09C
:1012E00008958BE892E008958AE692E0089587E5F4
:1012F00092E0089586E392E008958DE192E00895EA
:101300008CEF91E008958EEE91E00895FC01DB01F1
:101310004C9150E060E070E04283538364837583B6
:1013200011968C911197582B428353836483758354
:1013300012968C911297682B428353836483758332
:1013400013968C911397782B428353836483758310
:1013500014964C91149750E060E070E046835783F8
:101360006087718715968C911597582B4683578304
:101370006087718716968C911697682B46835783E2
:101380006087718717968C91782B46835783608787
:10139000718788E090E00895DC01FB0112968C9142
:1013A0001297808313968C911397818314968C9156
:1013B0001497828315968C911597838316968C913A
:1013C0001697848317968C911797858318968C911E
:1013D0001897868319968C91878388E090E008950A
:1013E0004F925F926F927F928F929F92AF92BF9235
:1013F000EF92FF920F931F93CF93DF9300D000D013
:10140000CDB7DEB77C018B01FB01808190E0A0E0CD
:10141000B0E0F70182839383A483B583FB0121812C
:10142000922BF70182839383A483B583FB012281EE
:10143000A22BF70182839383A483B583FB012381CD
:10144000B22BF70182839383A483B583FB0184814C
:1014500090E0A0E0B0E0F70186839783A087B18792
:10146000FB012581922BF70186839783A087B187A3
:10147000FB012681A22BF70186839783A087B18782
:10148000FB012781B22BF70186839783A087B18761
:10149000FB01808590E0A0E0B0E0F70182879387B0
:1014A000A487B587FB012185922BF701828793875B
:1014B000A487B587FB012285A22BF701828793873A
:1014C000A487B587FB012385B22BF7018287938719
:1014D000A487B587645F7F4FCE0101960E948A077B
:1014E00089819A81AB81BC814C015D01F0E18F0E55
:1014F000911CA11CB11CA801415F5F4FFA0120E1C2
:1015000030E02901612C712C481459046A047B04D1
:1015100028F4618161932F5F3F4FF3CFF801E80F0B
:10152000F91F1786F7015787468740960F900F904F
:101530000F900F90DF91CF911F910F91FF90EF903F
:10154000BF90AF909F908F907F906F905F904F90E3
:1015500008954F925F926F927F928F929F92AF9277
:10156000BF92EF92FF920F931F93CF93DF9300D020
:1015700000D0CDB7DEB77C018B01FB018191BF01AB
:10158000F7018283CE0101960E948A0789819A81A0
:10159000AB81BC814C015D01F5E08F0E911CA11C5B
:1015A000B11CA8014C5F5F4FFA0125E030E0290132
:1015B000612C712C481459046A047B0428F461815D
:1015C00061932F5F3F4FF3CFF801E80FF91F1482AB
:1015D000F7015483438305960F900F900F900F905F
:1015E000DF91CF911F910F91FF90EF90BF90AF903F
:1015F0009F908F907F906F905F904F9008954F9243
:101600005F926F927F928F929F92AF92BF92CF9292
:10161000DF92EF92FF920F931F93CF93DF93CDB79B
:10162000DEB72C970FB6F894DEBF0FBECDBF7C019E
:101630008B01DB018C9190E0F701938382831196FB
:101640002C91922B938382836E5F7F4FCE01019604
:101650000E948A0789809A80AB80BC802401350172
:10166000F6E04F0E511C611C711C98012B5F3F4F1F
:10167000F90186E090E0AC0160E070E044155505AA
:101680006605770520F4418141930196F4CFF80176
:10169000E80DF91D1582D70115963C932E931497EA
:1016A000B4016A5F7F4F600F711FCE0105960E94E3
:1016B0008A07BAE08B0E911C4D805E806F80788423
:1016C000A401092C000C660B770B440D551D661DFB
:1016D000771DD801A80DB91DCD01801B910B5C01B0
:1016E000C12CD12CA416B506C606D70628F48D91B8
:1016F000FD0132978083F0CF5401A40CB51CB801D2
:101700006A0D7B1DFB0131971082C4010197800F88
:10171000911FF70197838683CE0109960E948A075D
:1017200095012C5F3F4F89859A85AB85BC85290142
:10173000032E000C66087708480E591E6A1E7B1E91
:10174000F5013396E00FF11FA9014A01A12CB12C3C
:1017500084149504A604B70428F4618161934F5F53
:101760005F4FF3CF820F931FF801E80FF91FDF01DE
:1017700011971C9221503109020F131FD70119969E
:101780001C930E9318972181428150E060E070E035
:10179000BA0155274427522B2081422B2381722BDB
:1017A000F701428753876487758704962C960FB696
:1017B000F894DEBF0FBECDBFDF91CF911F910F9187
:1017C000FF90EF90DF90CF90BF90AF909F908F9061
:1017D0007F906F905F904F900895EF92FF920F93DC
:1017E0001F93CF93DF938C01EB01FC0182818883EF
:1017F0008381898384818A8385818B8386818C839D
:1018000087818D8380858E8381858F83828588877C
:101810008385898784858A8785858B87A685B78513
:10182000FD0101900020E9F731977F01EA1AFB0AD8
:10183000A70160E070E0CE010C960E949208F801CA
:1018400066857785A701CE0140960E94161DC701C7
:101850004096DF91CF911F910F91FF90EF900895E7
:101860004F925F926F927F92AF92BF92CF92DF9230
:10187000EF92FF920F931F93CF93DF93EC018B01B5
:101880008A81FB0180838B8181838C8182838D811E
:101890008383DB0140E050E0BA01E4E0F0E014961D
:1018A000CA80DB80EC80FD80CF0104964C155D057D
:1018B0006E057F05C8F42A853B85E20FF31F349738
:1018C000D080F18032812381DC921196FC921197B5
:1018D00012963C93129713962C931397FC014F5F2B
:1018E0005F4F6F4F7F4FDBCF5F01A00EB11E2C8586
:1018F000F50120832D8521832E8522832F85238347
:10190000D50140E050E0BA01CC84DD84EE84FF8450
:101910009C012C5F3F4F4C155D056E057F05F8F46B
:10192000CD018A199B09EC88FD888E0D9F1DFC0155
:10193000D080E180F28083811496DC921497159612
:10194000EC9215971696FC92169717968C9317970C
:10195000C9014F5F5F4F6F4F7F4F1496D5CFF8018E
:10196000E80FF91F8E8980838F898183888D828318
:10197000898D83837901A12CB12C412C512C32010A
:101980008E899F89A88DB98D481659066A067B06EF
:1019900080F5EC8DFD8DEA0DFB1DA081B181FD016F
:1019A00001900020E9F731976F01CA1ADB0AA601FE
:1019B00060E070E0C8018E0D9F1D0E949208F4E067
:1019C000EF0EF11CEC8DFD8DEA0DFB1D6081718128
:1019D000A601C8018E0D9F1D0E94161DEC0CFD1C5A
:1019E0008FEF481A580A680A780AE2E0AE0EB11C76
:1019F000C7CFC701DF91CF911F910F91FF90EF905B
:101A0000DF90CF90BF90AF907F906F905F904F909E
:101A10000895EF92FF920F931F93CF93DF938C0162
:101A20007B01DC0112962C911297FB012193CF01CF
:101A30001396ED91FC911497EF0109900020E9F7BE
:101A40002197CE1BDF0BAE0160E070E00E94920890
:101A5000D80113966D917C911497AE01C70105963C
:101A60000E94161DCE010596DF91CF911F910F9117
:101A7000FF90EF900895CF92DF92EF92FF920F9335
:101A80001F93CF93DF937C018B01DC0112968C9125
:101A90001297FB01808313968C9113978183149680
:101AA000ED91FC911597EF0109900020E9F721973E
:101AB000CE1BDF0BAE0160E070E0C80102960E9411
:101AC0009208D70114966D917C911597AE01C801CB
:101AD00006960E94161DCE010696F701A681B781D3
:101AE000FD0101900020E9F731976F01CA1ADB0A66
:101AF000A60160E070E0800F911F0E9492082A9674
:101B0000D70116966D917C911797A601C8018C0F8D
:101B10009D1F0E94161DCC0DDD1DD7011896ED915D
:101B2000FC911997DF010D900020E9F711976D01E5
:101B3000CE1ADF0AA60160E070E0C8018C0F9D1F7D
:101B40000E9492082496F70160857185A601C8015C
:101B50008C0F9D1F0E94161DC6018C0F9D1FD70163
:101B60001A966C911A971B964C911B971C963C9158
:101B70001C971D962C91F801E80FF91F6083418393
:101B8000328323830496DF91CF911F910F91FF90B1
:101B9000EF90DF90CF9008950C94C21B2F923F924C
:101BA0004F925F926F927F928F929F92AF92BF926D
:101BB000CF92DF92EF92FF920F931F93CF93DF9319
:101BC000CDB7DEB760970FB6F894DEBF0FBECDBFBE
:101BD0008C016B01DB018D909D90AD90BC90FC0160
:101BE00082819381A481B58188159905AA05BB05D9
:101BF00070F4B401660F771F660F771F8285938597
:101C00000E944B1CD8011B969C938E931A97F80147
:101C100082829382A482B5829601812C912C5401F8
:101C200044E050E0B8016A5F7F4F2C5F3F4FF801FE
:101C300082819381A481B581FA0134961F018816AF
:101C40009906AA06BB0650F5D9011196FC9011978A
:101C500012968C9190E0A0E0B0E0DC0199278827F3
:101C60009F29F901F0808F29F380BF29F80186832D
:101C70009783A087B187DA01A101149782859385A4
:101C8000A80FB91F84E0FB0101900D928A95E1F73E
:101C9000FFEF8F1A9F0AAF0ABF0AC7CF4601840E13
:101CA000951ED4018C9111969C91119712964C908F
:101CB0001297512C612C712C320155244424592A3D
:101CC000482A13968C91782A5F01F80184859585BE
:101CD000A685B78584159505A605B70570F4B201EC
:101CE000660F771F660F771F848995890E944B1CAA
:101CF000D80155969C938E935497F8014486558647
:101D000066867786C401412C512C32019801205FF0
:101D10003F4FD8011C964D915D916D917C911F971D
:101D2000F5013496441655066606770698F5DC01EB
:101D30001596FC90159716964C91169750E060E01A
:101D400070E0BA01552744275F291496FC90149738
:101D50004F291796FC907F29D80150964D935D939B
:101D60006D937C9353975F01AC01481959095496C0
:101D70000D90BC91A02DA40FB51F44E0F901019076
:101D80000D924A95E1F7BFEF4B1A5B0A6B0A7B0A8B
:101D90000496BFCFD601AA0DBB1D8C9111969C91C4
:101DA000119712968C901297912CA12CB12C540162
:101DB00099248824992A882A13968C91B82A7F011D
:101DC000F80186899789A08DB18D88159905AA0596
:101DD000BB0560F4B401660F771F848D958D0E945A
:101DE0004B1CD8015D969C938E935C97F801868A74
:101DF000978AA08EB18E212C312C812C912C5401EC
:101E00009801265E3F4F3A872987F801868997898E
:101E1000A08DB18D88169906AA06BB0608F05FC092
:101E2000B6016E0D7F1DCE0101960E948A079701B3
:101E30002C5F3F4F388B2F8749815A816B817C8182
:101E4000C901330FAA0BBB0B2C013D01440E551EDB
:101E5000661E771E4B865C866D867E8623E0E20ECC
:101E6000F11CF601EE0DFF1D2F853889C901A0E098
:101E7000B0E04B845C846D847E8484159505A60552
:101E8000B70528F4A181A1932F5F3F4FEFCF6F8457
:101E90007888460D571DF601E40FF51F3197108223
:101EA000C30101978C0D9D1DD8015B969C938E9369
:101EB0005A977A015C96ED91FC915D97E20DF31DC6
:101EC000A985BA858D919C9191838083BFEF8B1AF0
:101ED0009B0AAB0ABB0AE2E02E0E311C96CFC7016B
:101EE00060960FB6F894DEBF0FBECDBFDF91CF91E5
:101EF0001F910F91FF90EF90DF90CF90BF90AF9028
:101F00009F908F907F906F905F904F903F902F9019
:101F10000895FC01848195810C94C21BCF93DF93BB
:101F2000EC010E94890FCE01DF91CF910C94C21B6E
:101F3000CF93DF93DC0116968D919C911797FB014F
:101F400016962D913C91179725393105ECF4449163
:101F500014966D917C911597EB01C20FD31F4883A6
:101F600016962D913C91179731961496CD91DC9150
:101F70001597C20FD31F48812F5F3F4F17963C9391
:101F80002E9316974111DCCF16962D913C91179701
:101F90002539310534F022E030E019963C932E9338
:101FA000189714962D913C911597820F931FDF91EE
:101FB000CF9108950C94980F41110C94980FCB0178
:101FC00008950895AB01FC01A781B08565817681F4
:101FD000ED91FC9111970190F081E02DCD010994D4
:101FE0008F929F92AF92BF92CF92DF92EF92FF9229
:101FF0000F931F93FC01DB01C380C294C69427E0BA
:10200000C2228C2C912CA12CB12C8D929D92AD9240
:10201000BC921397048110E020E030E043E0000F11
:10202000111F221F331F4A95D1F768017901C82873
:10203000D928EA28FB28CD92DD92ED92FC921397E5
:10204000458150E060E070E01BE0440F551F661FC3
:10205000771F1A95D1F78A019B010C291D292E297A
:102060003F290D931D932D933C93139746814F70F9
:1020700050E060E070E083E1440F551F661F771F5A
:102080008A95D1F7402B512B622B732B4D935D9387
:102090006D937C931397868182958F7007810F775C
:1020A00010E020E030E094E0000F111F221F331FEA
:1020B0009A95D1F7082B0115110521053105A1F0DD
:1020C000005813402109310997E1000F111F221F09
:1020D000331F9A95D1F7042B152B262B372B0D93F5
:1020E0001D932D933C9313974781407850E060E017
:1020F00070E0742F6627552744270D911D912D916F
:102100003C911397402B512B622B732B4D935D9376
:102110006D937C93139788E090E01F910F91FF904F
:10212000EF90DF90CF90BF90AF909F908F900895E9
:102130008F929F92AF92BF92CF92DF92EF92FF92D7
:10214000CF93DF93EC014A015B01DB01CA0157E148
:10215000B595A795979587955A95D1F79927AA2769
:10216000BB270097A105B10521F080589C4FAF4FC8
:10217000BF4F188219821A82B501A40125E0440FCD
:10218000551F661F771F2A95D1F74B83B501A40110
:1021900033E075956795579547953A95D1F74C83F8
:1021A000B501A401EBE07595679557954795EA95BC
:1021B000D1F74D83B501A401F3E175956795579566
:1021C0004795FA95D1F7242F2F70AC01BD0134E06B
:1021D000440F551F661F771F3A95D1F7422B4E8348
:1021E0006C017D0144E0F594E794D794C7944A9537
:1021F000D1F720E030E0A901C501B4010E94941993
:1022000087FD02C0CF8203C08C2D80688F8388E059
:1022100090E0DF91CF91FF90EF90DF90CF90BF9053
:10222000AF909F908F900895CF92DF92EF92FF92A0
:102230000F931F93CF93DF936C017A018B01C0E062
:10224000D0E0CE15DF0581F0D8016D918D01D6016A
:10225000ED91FC910190F081E02DC6010995892B4B
:1022600011F02196EECF7E01C701DF91CF911F9132
:102270000F91FF90EF90DF90CF900895089580E048
:1022800090E00895FC01538D448D252F30E0842F7C
:1022900090E0821B930B541710F0CF96089501978E
:1022A0000895FC01918D828D981761F0828DDF0178
:1022B000A80FB11D5D968C91928D9F5F9F73928F39
:1022C00090E008958FEF9FEF0895FC01918D828D2E
:1022D000981731F0828DE80FF11D858D90E00895FB
:1022E0008FEF9FEF0895FC01918D228D892F90E053
:1022F000805C9F4F821B91098F739927089586E711
:1023000092E00E94731121E0892B09F420E0822FD2
:102310000895FC01848DDF01A80FB11DA35ABF4FA2
:102320002C91848D90E001968F739927848FA689D4
:10233000B7892C93A089B1898C91837080648C9328
:10234000938D848D981306C00288F389E02D8081D7
:102350008F7D80830895EF92FF920F931F93CF9309
:10236000DF93EC0181E0888F9B8D8C8D981305C0E5
:10237000E889F989808185FD26C0F62E0B8D10E055
:102380000F5F1F4F0F731127E02E8C8DE8120CC0CA
:102390000FB607FCFACFE889F989808185FFF5CF70
:1023A000CE010E948911F1CF8B8DFE01E80FF11D46
:1023B000E35AFF4FF0829FB7F8940B8FEA89FB89AD
:1023C000808180620AC09FB7F894EE89FF8960839C
:1023D000E889F98980818370806480839FBF81E070
:1023E00090E0DF91CF911F910F91FF90EF900895B2
:1023F000CF93DF93EC01888D8823C9F0EA89FB89AC
:10240000808185FD05C0A889B9898C9186FD0FC0A2
:102410000FB607FCF5CF808185FFF2CFA889B98977
:102420008C9185FFEDCFCE010E948911E7CFDF911E
:10243000CF91089580E090E0892B29F00E947F11D0
:1024400081110C94000008950E94111D1F920F929B
:102450000FB60F9211242F933F934F935F936F9377
:102460007F938F939F93AF93BF93EF93FF9386E7F1
:1024700092E00E948911FF91EF91BF91AF919F91DE
:102480008F917F916F915F914F913F912F910F901D
:102490000FBE0F901F9018951F920F920FB60F92BC
:1024A00011242F938F939F93EF93FF93E0918602D4
:1024B000F09187028081E0918C02F0918D0282FD83
:1024C00012C0908180918F028F5F8F732091900254
:1024D000821751F0E0918F02F0E0EA58FD4F958F9E
:1024E00080938F0201C08081FF91EF919F918F9126
:1024F0002F910F900FBE0F901F901895CF93DF93E1
:1025000000D000D01F92CDB7DEB725E531E03A8389
:1025100029836B835D834C83DC01ED91FC910190F9
:10252000F081E02DAE014F5F5F4F67E070E00995ED
:102530000F900F900F900F900F90DF91CF91089513
:10254000AF92BF92CF92DF92EF92FF920F931F93C1
:10255000CF93DF93643671053CF0FC01EE54FD4FE0
:102560002081222309F463C0DA016B01EC01BC0174
:102570006D5C7E4FED91FC910190F081E02DCA01E0
:1025800009958C017E0124EDE21A2EEFF20A2FEF5D
:10259000D7012C93FE01E35DFE4F2EEF2083319691
:1025A0008083319690833196980F909590833196E1
:1025B000C0821696DC9245E050E020E030E0C80191
:1025C00007964817590730F46191260F311D4F5F68
:1025D0005F4FF7CF085F1F4F8C0F9D1FFC01E45D1D
:1025E000FE4F209520830931B1E01B07A8F4680154
:1025F0005701C5018E199F0980179107D4F48A816C
:102600009B81F50161915F01DC01ED91FC910190ED
:10261000F081E02D0995EDCF49E252E063E0CE0173
:102620000E947E12CC24CA94DD24DA9402C0C12C0C
:10263000D12CC601DF91CF911F910F91FF90EF90A8
:10264000DF90CF90BF90AF90089590E0FC01EC5FD9
:10265000FC4F2491FC01E051FD4F3491FC01E45208
:10266000FD4FE491EE2309F43CC0222339F12330DD
:1026700091F038F42130A9F0223001F584B58F7D36
:1026800012C0273091F02830A1F02430B9F48091A5
:1026900080008F7D03C0809180008F7780938000C1
:1026A0000DC084B58F7784BD09C08091B0008F774D
:1026B00003C08091B0008F7D8093B000F0E0EE0FFA
:1026C000FF1FEE52FD4FA591B4919FB7F894611191
:1026D00004C08C913095382302C0EC913E2B3C9382
:1026E0009FBF0895CF93DF9390E0FC01E051FD4F31
:1026F0002491FC01E452FD4F8491882361F190E024
:10270000880F991FFC01E853FD4FC591D491FC013E
:10271000EE52FD4FA591B491611109C09FB7F89495
:102720008881209582238883EC912E230BC0623010
:1027300061F49FB7F8948881322F30958323888382
:10274000EC912E2B2C939FBF06C08FB7F894E88195
:102750002E2B28838FBFDF91CF9108952FB7F89448
:102760006091A3067091A4068091A5069091A6069B
:102770002FBF0895CF92DF92EF92FF920F931F9396
:10278000CF93DF93CDB7DEB728970FB6F894DEBFAF
:102790000FBECDBF0E94AE1300EC13E028EE33E075
:1027A00040E050E00E943E19F801C484D584E684DC
:1027B000F784C20ED31EE41EF51E9B01AC0160E43B
:1027C00072E48FE090E00E941A1900891189228931
:1027D0003389600F711F821F931F20E03AEC4AE992
:1027E0005BE30E943E1989019A010C0D1D1D2E1DEF
:1027F0003F1D09831A832B833C83202F3A814B8111
:102800005C8128960FB6F894DEBF0FBECDBFDF9176
:10281000CF911F910F91FF90EF90DF90CF9008958F
:102820000F931F93CF93DF93CDB7DEB72A970FB6E1
:10283000F894DEBF0FBECDBF8C0181E691E09A8394
:1028400089831B821C821D821E821F821886198624
:102850001A86D801ED91FC910190F081E02DAE0136
:102860004F5F5F4F6AE070E0C80109950E94AE13A8
:10287000F80160877187828793872A960FB6F8944C
:10288000DEBF0FBECDBFDF91CF911F910F91089595
:102890001F920F920FB60F9211242F933F938F9395
:1028A0009F93AF93BF938091A3069091A406A091AC
:1028B000A506B091A6063091A20623E0230F2D377E
:1028C00020F40196A11DB11D05C026E8230F029634
:1028D000A11DB11D2093A2068093A3069093A40688
:1028E000A093A506B093A60680919E0690919F06A0
:1028F000A091A006B091A1060196A11DB11D8093E3
:102900009E0690939F06A093A006B093A106BF9148
:10291000AF919F918F913F912F910F900FBE0F908C
:102920001F901895CF92DF92EF92FF920F931F9313
:10293000E82FF92F05C0015011092109310961F172
:10294000908196239417B9F305C00150110921090C
:10295000310911F1908196239413F7CFC12CD12C1A
:10296000E12CF12C0AC08FEFC81AD80AE80AF80A3D
:102970000C151D052E053F0579F0808186238417EF
:1029800091F36C2D7D2D8E2D9F2D1F910F91FF901A
:10299000EF90DF90CF90089560E070E080E090E0ED
:1029A0001F910F91FF90EF90DF90CF900895FC0161
:1029B00083E291E0918380838BE091E09383828333
:1029C000148215821682178210861186128613864B
:1029D000148615861686178687E191E0918B808B89
:1029E000128A138A148A158A168A178A108E118EF3
:1029F000128E138E148E158E168E178E10A211A2A3
:102A00000895789484B5826084BD84B5816084BD66
:102A100085B5826085BD85B5816085BD80916E007C
:102A2000816080936E0010928100809181008260AD
:102A300080938100809181008160809381008091EA
:102A400080008160809380008091B10084608093D9
:102A5000B1008091B00081608093B00080917A00D5
:102A6000846080937A0080917A00826080937A00FB
:102A700080917A00816080937A0080917A008068EA
:102A800080937A001092C100C090C403D090C50317
:102A9000E090C603F090C703C091C203D091C30376
:102AA00060E079E08DE390E0A70196010E943E1975
:102AB000DA01C9010197A109B109B695A7959795C2
:102AC00087959C01E889F98982E08083C11481EEB1
:102AD000D806E104F10421F02115E0E13E07A8F059
:102AE000E889F989108260E874E88EE190E0A70136
:102AF00096010E943E19DA01C9010197A109B109A5
:102B0000B695A795979587959C01EC85FD853083B3
:102B1000EE85FF852083188EEC89FD8986E0808311
:102B2000EA89FB89808180618083EA89FB898081D1
:102B300088608083EA89FB89808180688083EA8954
:102B4000FB8980818F7D80831092690610926806D0
:102B500010926B0610926A0610926F0610926E0623
:102B600010926D0610926C0604E016E0F80180E009
:102B700090E021913191232BB1F4FC01EE0FFF1F66
:102B8000EC5FF94F2FE733E03183208383589F4F69
:102B9000909385038093840380EC93E09093870364
:102BA0008093860304C001968931910511F7CAE824
:102BB000D3E087E692E090939B0380939A03812C65
:102BC000912C30E8A32E3FE3B32E8092A203909283
:102BD000A303A092A403B092A5031092B003109295
:102BE000B1031092B2031092B3031092B403109287
:102BF000B5031092B6031092B7031092B803109267
:102C0000B9031092BA031092BB038092BC03909256
:102C1000BD03A092BE03B092BF0385EF91E09093F5
:102C20009D0380939C03C12CD12C7601C394C09248
:102C30004303D0924403E0924503F0924603D093BD
:102C40007E03C0937D0361E473E08FE793E00E940D
:102C5000E20F83E092E090939D0380939C0380E0D9
:102C600090E0A0E0BFE38093B4039093B503A093FA
:102C7000B603B093B703C0924303D0924403E092EB
:102C80004503F0924603D0937E03C0937D0361E435
:102C900073E08FE793E00E94E20F81E192E090936E
:102CA0009D0380939C038092B4039092B503A092FD
:102CB000B603B092B703C0924303D0924403E092AC
:102CC0004503F0924603D0937E03C0937D0361E4F5
:102CD00073E08FE793E00E94E20F80E090E0F8015C
:102CE000219131918F01232BB1F4FC01EE0FFF1FD5
:102CF000EC5FF94F23E133E03183208383589F4F0A
:102D0000909319038093180380EC93E090931B0336
:102D100080931A0304C001968931910501F710923E
:102D2000300382E99AE0A6E0BFE3809331039093F9
:102D30003203A0933303B09334038FE692E1A3E010
:102D4000BBE38093350390933603A0933703B0938E
:102D5000380380E090E0A0EAB0E4809339039093D8
:102D60003A03A0933B03B0933C0361E088E00E94E8
:102D7000721360E088E00E94251361E084E00E9405
:102D8000721360E084E00E942513DD24D394C1E136
:102D9000D2E003E012E085EFE82E81E0F82E80918A
:102DA0007206811107C080EC93E00E94C803D092A4
:102DB0000001F5CF80910001882349F04FE152E0F6
:102DC00061E080EC93E00E947E12109200010E946C
:102DD000AE138090720290907302A0907402B09033
:102DE0007502681579058A059B0508F48DC063E0B6
:102DF00070E084E090E00E94EE0860933D037093E1
:102E00003E0380933F0390934003D0932F03C093DE
:102E10002E030E94BA132093260330932703409376
:102E200028035093290360932A0370932B03809304
:102E30002C0390932D036EE173E083E193E00E94F5
:102E4000E20F65E070E084E090E00E94EE0860939D
:102E50003D0370933E0380933F0390934003109390
:102E60002F0300932E030E94BA132093260330935E
:102E70002703409328035093290360932A037093F8
:102E80002B0380932C0390932D036EE173E083E179
:102E900093E00E94E20F69E070E088E090E00E9419
:102EA000EE0860933D0370933E0380933F0390933D
:102EB0004003F0922F03E0922E030E94BA13209356
:102EC00026033093270340932803509329036093EC
:102ED0002A0370932B0380932C0390932D036EE1B0
:102EE00073E083E193E00E94E20F0E94AE13DC01E5
:102EF000CB01C296A11DB11D809372029093730203
:102F0000A0937402B093750280EC93E00E94C80312
:102F10000E941A1244CFEF92FF920F931F93CF9308
:102F2000DF93109279021092780288EE93E0A0E08D
:102F3000B0E080937A0290937B02A0937C02B093DE
:102F40007D028DE691E0909377028093760285EC86
:102F500090E0909383028093820284EC90E09093BF
:102F600085028093840280EC90E0909387028093A6
:102F7000860281EC90E0909389028093880282EC33
:102F800090E090938B0280938A0286EC90E090937D
:102F90008D0280938C0210928F02109290021092F8
:102FA00091021092920287EC91E09093C10380937A
:102FB000C00386E792E09093C3038093C20380E04E
:102FC00091EEA0E0B0E08093C4039093C503A0937A
:102FD000C603B093C703109272068FEA91E09093F4
:102FE00081068093800610928206109283061092CA
:102FF00084061092850610928B0610928A06109213
:103000008C0610928D0610928E0610928F061092EA
:1030100095061092940610929606109297061092BA
:1030200098061092990610929D0610929C0684E0D4
:1030300096E0E6E3F6E0DC011D921D9226E0A63361
:10304000B207D1F728E636E0119211922E173F070A
:10305000D9F7A4EDB3E0ECEEF4E01D92EA17FB071C
:10306000E1F711928E179F07E1F783EAE82E81E0DE
:10307000F82EF0928B03E0928A0307E911E0109397
:103080008D0300938C0310928E0310928F03109285
:103090009003109291031092920310929303109256
:1030A0009403109295031092960310929703109236
:1030B000980310929903C1E6D2E0D0939B03C0938A
:1030C0009A03D0939D03C0939C038EE993E00E94E2
:1030D000D7148BE891E090934203809341031092C0
:1030E0004303109244031092450310924603F0925A
:1030F0004803E092470310934A0300934903109258
:103100004B0310924C0310924D0310924E031092F9
:103110004F031092500310925103109252031092D9
:103120005303109254031092550310925603D093F8
:103130005803C0935703D0935A03C09359038BE5A8
:1031400093E00E94D71410927E0310927D0382E6D2
:1031500092E09093800380937F031092810381E437
:1031600093E09093830380938203109289031092DB
:1031700088038FE791E090931F0380931E031093C1
:103180002103009320031092220310922303109234
:103190002403109225031092260310922703109205
:1031A00028031092290310922A0310922B031092E5
:1031B0002C0310922D03D0932F03C0932E03109253
:1031C00030031092310310923203109233031092A5
:1031D0003403109235031092360310923703109285
:1031E00038031092390310923A0310923B03109265
:1031F0003C0310923D0310923E0310923F03109245
:10320000400386E692E09093140380931303109298
:1032100015038EE193E090931703809316031092A9
:103220001D0310921C03DF91CF911F910F91FF900E
:10323000EF900895DB018F939F930E946019BF91D7
:10324000AF91A29F800D911DA39F900DB29F900DF5
:103250001124089597FB072E16F4009407D077FDEC
:1032600009D00E946B1907FC05D03EF4909581951A
:103270009F4F0895709561957F4F0895A1E21A2E92
:10328000AA1BBB1BFD010DC0AA1FBB1FEE1FFF1F0A
:10329000A217B307E407F50720F0A21BB30BE40B5A
:1032A000F50B661F771F881F991F1A9469F76095A1
:1032B0007095809590959B01AC01BD01CF0108955B
:1032C0000E948519A59F900DB49F900DA49F800D1D
:1032D000911D11240895AA1BBB1B51E107C0AA1F11
:1032E000BB1FA617B70710F0A61BB70B881F991FA7
:1032F0005A95A9F780959095BC01CD010895EE0FE0
:10330000FF1F0590F491E02D0994A29FB001B39F97
:10331000C001A39F700D811D1124911DB29F700DDE
:10332000811D1124911D08950E94481A08F481E01E
:1033300008950E94AD190C94831A0E947C1A58F0CB
:103340000E94751A40F029F45F3F29F00C946C1A22
:1033500051110C94B71A0C94721A0E94941A68F3C3
:103360009923B1F3552391F3951B550BBB27AA273E
:1033700062177307840738F09F5F5F4F220F331F78
:10338000441FAA1FA9F335D00E2E3AF0E0E832D040
:1033900091505040E695001CCAF72BD0FE2F29D043
:1033A000660F771F881FBB1F261737074807AB0715
:1033B000B0E809F0BB0B802DBF01FF2793585F4F8A
:1033C0003AF09E3F510578F00C946C1A0C94B71AA1
:1033D0005F3FE4F3983ED4F3869577956795B7956C
:1033E000F7959F5FC9F7880F911D9695879597F977
:1033F0000895E1E0660F771F881FBB1F62177307F0
:103400008407BA0720F0621B730B840BBA0BEE1F04
:1034100088F7E0950895E89409C097FB3EF49095ED
:103420008095709561957F4F8F4F9F4F9923A9F09D
:10343000F92F96E9BB279395F6958795779567952C
:10344000B795F111F8CFFAF4BB0F11F460FF1BC070
:103450006F5F7F4F8F4F9F4F16C0882311F096E903
:1034600011C0772321F09EE8872F762F05C06623B1
:1034700071F096E8862F70E060E02AF09A95660F6A
:10348000771F881FDAF7880F9695879597F9089523
:10349000990F0008550FAA0BE0E8FEEF1616170665
:1034A000E807F907C0F012161306E407F50798F0CD
:1034B000621B730B840B950B39F40A2661F0232BE6
:1034C000242B252B21F408950A2609F4A140A69562
:1034D0008FEF811D811D089597F99F6780E870E047
:1034E00060E008959FEF80EC089500240A9416167A
:1034F000170618060906089500240A9412161306E2
:10350000140605060895092E0394000C11F488236F
:1035100052F0BB0F40F4BF2B11F460FF04C06F5F8B
:103520007F4F8F4F9F4F089557FD9058440F551F61
:1035300059F05F3F71F04795880F97FB991F61F035
:103540009F3F79F087950895121613061406551FAC
:10355000F2CF4695F1DF08C0161617061806991F18
:10356000F1CF86957105610508940895E894BB270D
:1035700066277727CB0197F908950E94D01A0C94FB
:10358000831A0E94751A38F00E947C1A20F0952345
:1035900011F00C946C1A0C94721A11240C94B71A32
:1035A0000E94941A70F3959FC1F3950F50E0551F38
:1035B000629FF001729FBB27F00DB11D639FAA2788
:1035C000F00DB11DAA1F649F6627B00DA11D661FD7
:1035D000829F2227B00DA11D621F739FB00DA11DF8
:1035E000621F839FA00D611D221F749F3327A00DB2
:1035F000611D231F849F600D211D822F762F6A2F4E
:1036000011249F5750409AF0F1F088234AF0EE0FB2
:10361000FF1FBB1F661F771F881F91505040A9F7DF
:103620009E3F510580F00C946C1A0C94B71A5F3FC2
:10363000E4F3983ED4F3869577956795B795F7951B
:10364000E7959F5FC1F7FE2B880F911D9695879593
:1036500097F908950F931F93CF93DF9382309105CD
:1036600010F482E090E0E091A906F091AA0620E033
:1036700030E0A0E0B0E0309719F140815181028143
:10368000138148175907C8F08417950769F41097F4
:1036900031F012960C93129713961C9327C0009347
:1036A000A9061093AA0622C02115310519F0421768
:1036B000530718F49A01BD01EF01DF01F801DBCFD8
:1036C00021153105F9F0281B390B2430310580F420
:1036D0008A819B816115710521F0FB0193838283AF
:1036E00004C09093AA068093A906FE01329644C0B6
:1036F000FE01E20FF31F8193919322503109398328
:1037000028833AC02091A7063091A806232B41F4C4
:1037100020910301309104013093A8062093A7065D
:1037200020910101309102012115310541F42DB79D
:103730003EB74091050150910601241B350BE091E5
:10374000A706F091A806E217F307A0F42E1B3F0B83
:103750002817390778F0AC014E5F5F4F2417350703
:1037600048F04E0F5F1F5093A8064093A706819321
:10377000919302C0E0E0F0E0CF01DF91CF911F9183
:103780000F910895CF93DF93009709F481C0FC0156
:10379000329713821282A091A906B091AA061097BF
:1037A00081F420813181820F931F2091A7063091EF
:1037B000A8062817390751F5F093A806E093A70645
:1037C00067C0ED0120E030E0CE17DF0740F44A810A
:1037D0005B819E0141155105F1F0EA01F5CFD383DC
:1037E000C28340815181840F951FC817D90759F4AE
:1037F00088819981840F951F0296918380838A81A5
:103800009B81938382832115310529F4F093AA06C5
:10381000E093A9063DC0E901FB83EA8349915991F0
:10382000C40FD51FEC17FD0761F480819181840FCF
:10383000951F0296E90199838883828193819B83F6
:103840008A83E0E0F0E012968D919C9113970097A7
:1038500019F0FD01DC01F7CF8D919C9111979D012D
:103860002E5F3F4F820F931F2091A7063091A8062D
:103870002817390769F4309729F41092AA06109294
:10388000A90602C013821282B093A806A093A706CD
:10389000DF91CF910895A0E0B0E0E1E5FCE10C9468
:1038A000231DEC01009721F4CB010E942A1BB4C018
:1038B000FC01E60FF71F9C0122503109E217F307C4
:1038C00008F4A8C0D9010D911C911197061717078C
:1038D000B0F00530110508F49BC0C80104978617A5
:1038E000970708F495C002501109061B170B0193A6
:1038F00011936D937C93CF010E94C21B89C05B0121
:10390000A01AB10A4C01800E911EA091A906B09197
:10391000AA06612C712CE12CF12C109709F446C0F9
:103920008D919C911197A815B905B1F56C0142E0F4
:10393000C40ED11CCA14DB0478F14C018A189B0810
:10394000640142E0C40ED11C1296BC9012971396EB
:10395000AC91B5E0CB16D10440F0B282A383918242
:103960008082D9016D937C9309C00E5F1F4F800F39
:10397000911FF90191838083EB2DFA2FE114F1045B
:1039800031F0D7011396FC93EE93129741C0F09358
:10399000AA06E093A9063CC06816790608F43C0123
:1039A0007D0112960D90BC91A02DB7CF8091A706F6
:1039B0009091A80688169906E1F466167706C8F471
:1039C0008091010190910201009741F48DB79EB75B
:1039D0004091050150910601841B950BE817F907EA
:1039E000C8F4F093A806E093A706F90171836083F9
:1039F0000FC0CB010E942A1B7C01009759F0A8013F
:103A0000BE010E94161DCE010E94C21BC70104C048
:103A1000CE0102C080E090E0CDB7DEB7EEE00C94BE
:103A20003F1D81E090E0F8940C94561DFB01DC01F1
:103A300002C001900D9241505040D8F708952F9246
:103A40003F924F925F926F927F928F929F92AF922E
:103A5000BF92CF92DF92EF92FF920F931F93CF937B
:103A6000DF93CDB7DEB7CA1BDB0B0FB6F894DEBF12
:103A70000FBECDBF09942A88398848885F846E8438
:103A80007D848C849B84AA84B984C884DF80EE8082
:103A9000FD800C811B81AA81B981CE0FD11D0FB68B
:103AA000F894DEBF0FBECDBFED010895F894FFCFAF
:103AB000010000AB068000000000007C03FA022B2E
:103AC000022802000000004003C602250222020074
:103AD000000000AC0324031F021C0200000000DCF5
:103AE0000F890F8E0FDA0F000000006209E10FCC82
:103AF0000D6009000000003B0DFF0A7D097A0900F6
:103B00000000000000090DA90A77097409000000EF
:103B100000CC0986098309800900000000AB11145C
:103B2000114211F81173115111651100000000923A
:103B3000023A0231022E0200000000C2012508BF35
:103B400001BC0100000000ED0BF009370234020057
:103B5000000000AF08B8071902160200000000308C
:103B60000CCE0D71096E09000000002412241224ED
:103B700012241200000000A012C803B701466C61B5
:103B800073682072656164206E6F7420696D706C5B
:103B900000427566666572206F766572666C6F7737
:103BA0002070756200756C747261736F756E645FFE
:103BB000465200756C747261736F756E645F464334
:103BC00000756C747261736F756E645F464C004370
:103BD0004F4E4E4543544544004D657373616765D0
:103BE0002066726F6D206465766963652064726F0C
:103BF000707065643A206D657373616765206C61F0
:103C000072676572207468616E206275666665729F
:103C10002E002F7466002F756C747261736F756E51
:023C200064003E
:00000001FF
