:100000000C945D000C9485000C9485000C94850084
:100010000C9485000C9485000C9485000C9485004C
:100020000C9485000C9485000C9485000C9485003C
:100030000C9485000C9485000C9485000C9485002C
:100040000C941F050C9485000C948F050C94690585
:100050000C9485000C9485000C9485000C9485000C
:100060000C94C1050C9485000000000024002700BA
:100070002A0000000000250028002B0004040404CE
:100080000404040402020202020203030303030342
:10009000010204081020408001020408102001021F
:1000A00004081020000000080002010000030407FB
:1000B0000000000000000000EF0611241FBECFEF7B
:1000C000D8E0DEBFCDBF11E0A0E0B1E0E2E2F2E1B6
:1000D00002C005900D92A03AB107D9F723E0A0EA3B
:1000E000B1E001C01D92A232B207E1F710E0CDE508
:1000F000D0E004C02197FE010E940409CC35D1074D
:10010000C9F70E942B070C940F090C940000282FAC
:1001100030916902313208F04AC080914502811164
:10012000FCCF9091680242E0409345022093440244
:100130002FEF209343021092420230934102E8E4F1
:10014000F2E0A1E2B2E020E0321721F041914D93BC
:100150002F5FFACF1092200220912002990F922B4C
:100160009093200290911F02913061F410921F022F
:10017000909120029093BB009091BC0093FDF8CF2A
:1001800095EC01C095EE9093BC00909145029230A1
:10019000E1F3909143029F3F79F0809143028032D6
:1001A00041F080914302803331F084E005C081E06A
:1001B00003C082E001C083E01092470210926902FE
:1001C00010924602089580911A0290E0209119023F
:1001D000821B9109089590E0FC01EC55FF4F24919A
:1001E000FC01E057FF4F3491FC01E458FF4FE491CC
:1001F000EE2309F43CC0222339F1233091F038F486
:100200002130A9F0223001F584B58F7D12C027304E
:1002100091F02830A1F02430B9F4809180008F7DD6
:1002200003C0809180008F77809380000DC084B5DB
:100230008F7784BD09C08091B0008F7703C0809113
:10024000B0008F7D8093B000F0E0EE0FFF1FEE58FE
:10025000FF4FA591B4919FB7F894611104C08C91A0
:100260003095382302C0EC913E2B3C939FBF0895FC
:1002700008950895CF92DF92EF92FF920F931F930C
:10028000CF93DF936C017A018B01C0E0D0E0CE15F3
:10029000DF0581F0D8016D918D01D601ED91FC91C2
:1002A0000190F081E02DC6010995892B11F021966E
:1002B000EECF7E01C701DF91CF911F910F91FF908B
:1002C000EF90DF90CF900895FC01538D448D252F42
:1002D00030E0842F90E0821B930B541710F0CF96E0
:1002E000089501970895FC01918D828D981761F012
:1002F000828DDF01A80FB11D5D968C91928D9F5F5D
:100300009F73928F90E008958FEF9FEF0895FC0107
:10031000918D828D981731F0828DE80FF11D858DBA
:1003200090E008958FEF9FEF0895FC01918D228D4D
:10033000892F90E0805C9F4F821B91098F739927D2
:1003400008958AE692E00E94950121E0892B09F444
:1003500020E0822F0895FC01848DDF01A80FB11DDC
:10036000A35ABF4F2C91848D90E001968F739927EB
:10037000848FA689B7892C93A089B1898C918370C9
:1003800080648C93938D848D981306C00288F389C2
:10039000E02D80818F7D80830895EF92FF920F93EF
:1003A0001F93CF93DF93EC0181E0888F9B8D8C8D21
:1003B000981305C0E889F989808185FD26C0F62E4D
:1003C0000B8D10E00F5F1F4F0F731127E02E8C8DE8
:1003D000E8120CC00FB607FCFACFE889F9898081D2
:1003E00085FFF5CFCE010E94AB01F1CF8B8DFE01D1
:1003F000E80FF11DE35AFF4FF0829FB7F8940B8F7F
:10040000EA89FB89808180620AC09FB7F894EE89EF
:10041000FF896083E889F9898081837080648083A3
:100420009FBF81E090E0DF91CF911F910F91FF90EE
:10043000EF900895CF93DF93EC01888D8823C9F066
:10044000EA89FB89808185FD05C0A889B9898C91DD
:1004500086FD0FC00FB607FCF5CF808185FFF2CF78
:10046000A889B9898C9185FFEDCFCE010E94AB019F
:10047000E7CFDF91CF91089580E090E0892B29F0BC
:100480000E94A10181110C940000089585ED8093D4
:10049000BC008091BC0084FDFCCF10924502089501
:1004A0004091C001262F30E0240F311D213231054B
:1004B000DCF4209145022430C9F4FC0180E090E096
:1004C000861758F43091C0012191DC01A056BE4F2F
:1004D000A30FB11D2C930196F3CF8091C001680F3B
:1004E0006093C00180E0089581E0089582E008955E
:1004F0000895E091190280911A02E81730F4F0E0B3
:10050000E750FE4F808190E008958FEF9FEF0895B0
:100510009091190280911A02981750F4E92FF0E097
:10052000E750FE4F208130E09F5F9093190202C098
:100530002FEF3FEFC9010895CF92DF92EF92FF9224
:100540000F931F93CF93DF937C01CB018A012091FE
:100550004602222389F0EB016B01C40ED51ECC1597
:10056000DD0569F06991D701ED91FC910190F08171
:10057000E02DC7010995F3CF642F0E945002C801F6
:10058000DF91CF911F910F91FF90EF90DF90CF906F
:100590000895CF93DF931F92CDB7DEB76983209183
:1005A00046022223D1F020916902203240F021E05E
:1005B00030E0FC013383228380E090E015C080911D
:1005C0004702E82FF0E0E85BFD4F998190838F5F51
:1005D000809347028093690205C061E0CE010196D5
:1005E0000E94500281E090E00F90DF91CF9108953A
:1005F000CF93DF93EA0191E09093460280936802E3
:10060000109247021092690287E093E00E94C902AB
:10061000688187E093E00E94C90281E00E94870020
:1006200091E0811190E0892FDF91CF910895089595
:1006300080E090E00895009769F0FC0101900020AF
:10064000E9F73197AF01481B590BBC018AE692E0EC
:100650000C943A0180E090E00895CF93DF930E94DC
:100660001B03EC0184E291E00E941B038C0F9D1F91
:10067000DF91CF9108958F929F92AF92BF92CF92C8
:10068000DF92EF92FF920F931F93CF93DF93CDB73B
:10069000DEB7A1970FB6F894DEBF0FBECDBF6C01D9
:1006A000990FEE08FF08F7FE2BC06DE28AE692E094
:1006B0000E94CD018C0122273327A9012C193D0965
:1006C0004E095F0919A2CE0181967C019AE0892E1C
:1006D000912CA12CB12CCA01B901A50194010E9451
:1006E000E208605DF70162937F0121153105410544
:1006F000510589F7CF010E941B03800F911F1DC078
:10070000A701960119A28E010F5D1F4F8AE0C82E26
:10071000D12CE12CF12CCA01B901A70196010E944C
:10072000E208605DF80162938F01211531054105F2
:10073000510589F7CF010E941B03A1960FB6F894CB
:10074000DEBF0FBECDBFDF91CF911F910F91FF9004
:10075000EF90DF90CF90BF90AF909F908F900895D3
:100760002F923F924F925F926F927F928F929F92C1
:10077000AF92BF92CF92DF92EF92FF920F931F93AF
:10078000CF93DF93CDB7DEB727970FB6F894DEBFD0
:100790000FBECDBF782E662E4E8369018FB7F894B9
:1007A00080901B0290901C02A0901D02B0901E022F
:1007B0008FBF272D220F2B83E12C1F82FF24F39460
:1007C0009E81892F90E09D838C831801412C512CB0
:1007D000EE81EE1608F088C0F09246027092680230
:1007E0001092470210926902662D87E093E00E9402
:1007F000C90281E00E948700F092460210924702EF
:1008000010926902809145028111FCCF8C819D81FB
:100810008E1991098132910514F080E290E08132C5
:1008200008F080E2F0924502F0924402FFEFF0936C
:100830004302109242029FEF980F90934102F09270
:100840002002909120022B81922B90932002909174
:100850001F02913071F410921F0290912002909328
:10086000BB009091BC0093FDF8CF45EC4093BC00D9
:1008700003C095EE9093BC00909145029130E1F356
:1008800090914202981710F480914202E1E2F2E066
:10089000A9EFB1E090E0981721F021912D939F5F8F
:1008A000FACF1092190290931A0290911A02809135
:1008B0001902981709F451C001151105D9F12FB784
:1008C000F89480911B0290911C02A0911D02B0919E
:1008D0001E022FBF88199909AA09BB098215930521
:1008E000A405B50538F139C001151105E1F12FB79F
:1008F000F89480911B0290911C02A0911D02B0916E
:100900001E022FBF88199909AA09BB0920E030E00F
:1009100080179107A207B30730F1EE812E2F30E048
:10092000FF818F2FFF0F990B82179307E4F42FEFAE
:100930002F8319C0C601EF818E0F911DE7FD9A9597
:100940009A83898387E093E00E948802E981FA8193
:100950008083FF81FF5FFF83A8CF8E81813208F003
:1009600080E2E80E35CF8F8127960FB6F894DEBF70
:100970000FBECDBFDF91CF911F910F91FF90EF90F0
:10098000DF90CF90BF90AF909F908F907F906F90AF
:100990005F904F903F902F900895BF92CF92DF923B
:1009A000EF92FF920F931F93CF93DF9300D0CDB7B9
:1009B000DEB7F82EE62EC42EB22ED02E08EE13E0AF
:1009C0009E012E5F3F4F41E00E94B003882341F11A
:1009D0004C2D50E04B1951094F5F5F4F81E090E083
:1009E00002C0880F991FBA94E2F70197042E01C044
:1009F000880F0A94EAF72D2D01C0220F4A95EAF7D5
:100A0000382F30959A8193238223892B8A83898377
:100A1000AE014F5F5F4F6E2D8F2D0E94F80201C017
:100A200080E00F900F90DF91CF911F910F91FF9079
:100A3000EF90DF90CF90BF9008950E940A091F9217
:100A40000F920FB60F9211242F933F938F939F9382
:100A5000AF93BF9380911B0290911C02A0911D0245
:100A6000B0911E023091F80123E0230F2D3720F4BE
:100A70000196A11DB11D05C026E8230F0296A11DF8
:100A8000B11D2093F80180931B0290931C02A09348
:100A90001D02B0931E028091F4019091F501A09186
:100AA000F601B091F7010196A11DB11D8093F401EB
:100AB0009093F501A093F601B093F701BF91AF9128
:100AC0009F918F913F912F910F900FBE0F901F908C
:100AD00018951F920F920FB60F9211242F933F93E8
:100AE0004F935F936F937F938F939F93AF93BF9336
:100AF000EF93FF938AE692E00E94AB01FF91EF91A2
:100B0000BF91AF919F918F917F916F915F914F9125
:100B10003F912F910F900FBE0F901F9018951F922D
:100B20000F920FB60F9211242F938F939F93EF93F1
:100B3000FF93E0917A02F0917B028081E091800244
:100B4000F091810282FD12C09081809183028F5FBB
:100B50008F7320918402821751F0E0918302F0E0BC
:100B6000E659FD4F958F8093830201C08081FF91EC
:100B7000EF919F918F912F910F900FBE0F901F902B
:100B800018951F920F920FB60F9211242F933F9337
:100B90004F935F936F937F938F939F93AF93BF9385
:100BA000EF93FF938091B900887F803609F49CC051
:100BB00068F5883209F45BC090F4803109F454C0C0
:100BC00038F4882309F4F6C0883009F44DC0F6C023
:100BD000883109F44CC0803209F45DC0EFC0803424
:100BE00009F468C048F4803309F455C0883309F02B
:100BF000E5C080934302D8C0803509F44FC08835E2
:100C000009F45DC0883409F0D9C0D6C0883909F428
:100C1000C7C0A8F4883709F467C038F4883609F4E7
:100C200063C0803709F460C0C9C0883809F4B8C00F
:100C3000803909F45FC0803809F0C0C05BC0803BD8
:100C400009F486C038F4803A09F466C0883A09F499
:100C50007FC0B4C0803C09F4A7C0883C09F4A4C09C
:100C6000883B09F48AC0AAC08091200210C09091EC
:100C7000420280914102981770F5E091420281E0B2
:100C80008E0F80934202F0E0EF5DFD4F80818093F4
:100C9000BB0085EC86C0809343028EC0E091420287
:100CA00081E08E0F809342028091BB00F0E0EF5D07
:100CB000FD4F808390914202809141026EC0E0918D
:100CC000420281E08E0F809342028091BB00F0E0EF
:100CD000EF5DFD4F80838091440281116DC081E002
:100CE00080931F0284EA61C083E0809345021092E2
:100CF000E201CFCF8091E201803208F051C0E09153
:100D0000E20181E08E0F8093E2018091BB00F0E070
:100D1000EE53FE4F8083BDCF85EC8093BC001092D4
:100D200045028091E201803230F4E091E201F0E08E
:100D3000EE53FE4F10826091E20170E0E091E3011A
:100D4000F091E40182EC91E009951092E20136C045
:100D500084E0809345021092C1011092C001E0919D
:100D6000E501F091E60109958091C001811105C06E
:100D700081E08093C0011092A001E091C10181E067
:100D80008E0F8093C101F0E0E056FE4F808180938A
:100D9000BB009091C1018091C001981708F479CFF0
:100DA00085E88093BC000AC085EC8093BC0010925B
:100DB000450204C0109243020E944602FF91EF9147
:100DC000BF91AF919F918F917F916F915F914F9163
:100DD0003F912F910F900FBE0F901F901895EAE64C
:100DE000F2E01382128288EE93E0A0E0B0E0848308
:100DF0009583A683B78324E031E03183208325ECFB
:100E000030E03587248724EC30E03787268720ECD4
:100E100030E0318B208B21EC30E0338B228B22ECC5
:100E200030E0358B248B26EC30E0378B268B118E0F
:100E3000128E138E148EE7E0F3E013821282848305
:100E40009583A683B78386E191E09183808388E6CA
:100E5000809313030895CF93DF9300D0CDB7DEB70F
:100E6000789484B5826084BD84B5816084BD85B585
:100E7000826085BD85B5816085BD80916E00816091
:100E800080936E0010928100809181008260809337
:100E90008100809181008160809381008091800039
:100EA0008160809380008091B10084608093B10064
:100EB0008091B00081608093B00080917A0084605E
:100EC00080937A0080917A00826080937A0080918A
:100ED0007A00816080937A0080917A0080688093A4
:100EE0007A001092C1001092190210921A02109208
:100EF0004702109269021092450281E080934402F9
:100F000010921F0261E082E10E94EB0061E083E148
:100F10000E94EB008091B9008E7F8093B900809190
:100F2000B9008D7F8093B90088E48093B80085E490
:100F30008093BC0088E391E09093E6018093E50103
:100F400089E391E09093E4018093E301E0917A02D8
:100F5000F0917B0282E08083E0917602F09177024B
:100F60001082E0917802F091790283E380831092FD
:100F70008202E0917E02F0917F0286E08083E09120
:100F80007C02F0917D02808180618083E0917C020F
:100F9000F0917D02808188608083E0917C02F091F5
:100FA0007D02808180688083E0917C02F0917D02E7
:100FB00080818F7D80838FE591E00E942D0301E089
:100FC00023E042E06BE6809113030E94CD0400E031
:100FD00022E044E06BE1809113030E94CD0422E003
:100FE00044E06CE1809113030E94CD04F090130360
:100FF00008EE13E09E012F5F3F4F41E06BE68F2D1F
:101000000E94B00389818F7B89838A83AE014E5F02
:101010005F4F6BE68F2D0E94F8028BE791E00E94F4
:101020002D039E012F5F3F4F41E065E78091130341
:101030000E94B003882339F089818E7790E09595DE
:1010400087958093140380911403843319F487E205
:1010500091E002C085E491E00E942D03EDE9F0E00B
:101060002491E9E8F0E08491882399F090E0880FDA
:10107000991FFC01E859FF4FA591B491FC01EE586E
:10108000FF4F859194918FB7F894EC91E22BEC93FC
:101090008FBFFF24F39408EE13E024E133E04EE029
:1010A0006BE3809113030E94B0038091140390912D
:1010B00015039827892798279093F3018093F201CD
:1010C000809116039091170398278927982790936A
:1010D000F1018093F00180911803909119039827F2
:1010E000892798279093EF018093EE0180911C034C
:1010F00090911D039827892798279093ED0180935D
:10110000EC0180911E0390911F039827892798274F
:101110009093EB018093EA01809120039091210349
:101120009827892798279093E9018093E80189E916
:1011300091E00E941B038091F2019091F3010E94C3
:101140003B038DE991E00E941B038091F001909197
:10115000F1010E943B038DE991E00E941B03809105
:10116000EE019091EF010E943B038DE991E00E9416
:101170001B038091EC019091ED010E943B038DE9EE
:1011800091E00E941B038091EA019091EB010E9483
:101190003B038DE991E00E941B038091E80190914F
:1011A000E9010E943B0384E291E00E941B036091ED
:1011B000E7016F256093E7018DE00E94EB000E943C
:1011C0003C0269CFA1E21A2EAA1BBB1BFD010DC078
:1011D000AA1FBB1FEE1FFF1FA217B307E407F507E7
:1011E00020F0A21BB30BE40BF50B661F771F881FC3
:1011F000991F1A9469F760957095809590959B0159
:10120000AC01BD01CF010895EE0FFF1F0590F491D1
:10121000E02D099481E090E0F8940C940F09F89483
:02122000FFCFFE
:1012220000000000CD013A0164011A029501730128
:10123200870100000000C9029C0218037802E30043
:10124200880279020D0A004D505536303530206340
:101252006F6E6E656374696F6E2073756363657319
:101262007366756C004D50553630353020636F6EA5
:101272006E656374696F6E206661696C65640049AE
:101282006E697469616C697A696E672049324320BC
:10129200646576696365732E2E2E005465737469D6
:1012A2006E672064657669636520636F6E6E656341
:1012B20074696F6E732E2E2E00612F673A0900003B
:00000001FF
